:100000000C9464000C948C000C948C000C948C0068
:100010000C948C000C948C000C948C000C948C0030
:100020000C948C000C948C000C948C000C948C0020
:100030000C948C000C948C000C948C000C948C0010
:100040000C9466040C948C000C949C030C94CE03CA
:100050000C948C000C948C000C948C000C948C00F0
:100060000C948C000C948C0000000008000201002D
:100070000003040700000000000000000102040863
:100080001020408001020408102001020408102002
:10009000040404040404040402020202020203032E
:1000A00003030303000000002300260029000000D2
:1000B0000000250028002B0000000000240027007D
:1000C0002A0013016E02FE0311241FBECFEFD8E0F9
:1000D000DEBFCDBF11E0A0E0B1E0EAE6FCE002C087
:1000E00005900D92A031B107D9F721E0A0E1B1E070
:1000F00001C01D92A83CB207E1F710E0C4E6D0E0D1
:1001000004C02197FE010E942D06C136D107C9F710
:100110000E9457040C9433060C9400006FEF8CE19E
:1001200091E00E9457026FEF8AE191E00E9457022E
:1001300026E040E052EC61E070E082E291E00E9453
:10014000370362E08FE00E94750562E08EE00E9456
:10015000750562E080E10E94750562E081E10C9422
:100160007505EF92FF920F931F93CF93DF9300D00B
:100170001F92CDB7DEB77B015A8349832B830E9440
:10018000E10501E010E02B81892B11F000E010E087
:10019000F701808191810817190769F00130110575
:1001A00011F4622F01C064E0CE0101960E94FF01AC
:1001B000F701118300830F900F900F90DF91CF9183
:1001C0001F910F91FF90EF90089540911C01509165
:1001D0001D0121E066E171E08FE00E94B1004091D5
:1001E0001C0150911D0122E064E171E08EE00E944B
:1001F000B10040911A0150911B0121E062E171E0D0
:1002000080E10E94B10040911A0150911B0122E04F
:1002100060E171E081E10E94B10062E370E080E0A2
:1002200090E00C94D50441E061E08EE191E00E9401
:10023000A20141E062E08CE191E00E94A20141E074
:1002400063E08AE191E00E94A20141E064E088E17C
:1002500091E00C94A20184B5836884BD17BC61E071
:1002600086E00C94750584B5836284BD18BC61E09A
:1002700085E00C947505CF93DF9360E08CE00E94DD
:10028000B10560E088E00E94B105C7E0D0E060E021
:1002900084E00E94B1058091210190E00C2E02C003
:1002A000959587950A94E2F780FF02C061E001C04E
:1002B00060E088E00E94B10561E084E00E94B10541
:1002C000219728F761E08CE0DF91CF910C94B10584
:1002D000CF93DF93EC0161E08CE00E94750561E053
:1002E00087E00E94750561E088E00E94750561E085
:1002F00084E00E94750510922101CE010E943B010D
:1003000060E087E0DF91CF910C94B105E0EBF0E085
:1003100090819368908387708093B1001092B300AE
:1003200061E08BE00C947505E0EBF0E09081936266
:10033000908387708093B1001092B40061E083E0F5
:100340000C9475051F93CF93DF931F92CDB7DEB743
:10035000142FFC016083418380E291E069830E9455
:1003600068016981623039F198F4613009F042C066
:1003700080912101837F8093210180E291E00E949E
:100380003B01812F0F90DF91CF911F910C9486013B
:10039000633009F1643071F5809121018E7B809387
:1003A000210180E291E00E943B010F90DF91CF910B
:1003B0001F910C943301809121018D7E8093210146
:1003C00080E291E00E943B01812F0F90DF91CF915D
:1003D0001F910C949401809121018F7580932101CC
:1003E00080E291E00E943B010F90DF91CF911F913D
:1003F0000C942B010F90DF91CF911F910895FC0178
:100400008081823049F018F4813079F0089583308A
:1004100031F0843039F0089524E031E008C027E05D
:1004200035E005C026E030E002C023E032E0623073
:10043000A9F0643029F16130C9F581E090E0AC01A8
:1004400001C0440F2A95EAF7409501C0880F3A95FC
:10045000EAF790912101892B842322C081E090E06A
:10046000AC0101C0440F3A95EAF7342F3095409122
:100470002101342301C0880F2A95EAF7832B10C08D
:1004800041E050E0CA0101C0880F3A95EAF701C087
:10049000440F2A95EAF7842B8095909121018923B6
:1004A0008093210180E291E00C943B010895FC01CE
:1004B0008081823061F018F4813031F0089583300A
:1004C00049F0843049F008956093B3000895609333
:1004D000B400089567BD089568BD08951092200185
:1004E0000895FC01918D228D892F90E0805C9F4FB3
:1004F000821B91098F7399270895FC01918D828D3C
:10050000981731F0828DE80FF11D858D90E00895E8
:100510008FEF9FEF0895FC01918D828D981761F008
:10052000828DDF01A80FB11D5D968C91928D9F5F2A
:100530009F73928F90E008958FEF9FEF089584EF5F
:1005400093E0892B49F080E090E0892B29F00E940C
:10055000F40381110C9400000895FC01848DDF01E7
:10056000A80FB11DA35ABF4F2C91848D90E0019626
:100570008F739927848FA689B7892C93A089B18915
:100580008C9180648C93938D848D981306C002881F
:10059000F389E02D80818F7D80830895CF93DF9351
:1005A000EC01888D8823C9F0EA89FB89808185FD6B
:1005B00005C0A889B9898C9186FD0FC00FB607FCCC
:1005C000F5CF808185FFF2CFA889B9898C9185FF0D
:1005D000EDCFCE010E94AD02E7CFDF91CF9108951C
:1005E000EF92FF920F931F93CF93DF93EC0181E083
:1005F000888F9B8D8C8D981305C0E889F98980813F
:1006000085FD24C0F62E0B8D10E00F5F1F4F0F737A
:100610001127E02E8C8DE8120CC00FB607FCFACF24
:10062000E889F989808185FFF5CFCE010E94AD026E
:10063000F1CF8B8DFE01E80FF11DE35AFF4FF082E1
:100640000B8FEA89FB898081806207C0EE89FF8970
:100650006083E889F98980818064808381E090E00B
:10066000DF91CF911F910F91FF90EF900895CF925E
:10067000DF92EF92FF921F93CF93DF93EC016A0119
:100680007B01122FE889F98982E080834115514E60
:1006900061057105B1F060E079E08DE390E0A701BC
:1006A00096010E940B06DA01C9010197A109B1095F
:1006B000B695A79597958795AC01411580E15807A8
:1006C000A8F0E889F989108260E874E88EE190E08A
:1006D000A70196010E940B06BA01A90141505109D8
:1006E000610971097695679557954795EC85FD8564
:1006F0005083EE85FF854083188EEC89FD89108339
:10070000EA89FB89808180618083EA89FB89808115
:1007100088608083EA89FB89808180688083EA8998
:10072000FB8980818F7D8083DF91CF911F91FF9026
:10073000EF90DF90CF9008951F920F920FB60F9217
:1007400011242F938F939F93EF93FF93E0913201A6
:10075000F09133018081E0913801F091390182FDFF
:1007600012C0908180913B018F5F8F7320913C017B
:10077000821751F0E0913B01F0E0EE5DFE4F958F66
:1007800080933B0101C08081FF91EF919F918F91F8
:100790002F910F900FBE0F901F9018951F920F92E0
:1007A0000FB60F9211242F933F934F935F936F9344
:1007B0007F938F939F93AF93BF93EF93FF9382E2C7
:1007C00091E00E94AD02FF91EF91BF91AF919F9197
:1007D0008F917F916F915F914F913F912F910F90EA
:1007E0000FBE0F901F90189582E291E00E94710257
:1007F00021E0892B09F420E0822F0895E2E2F1E064
:100800001382128288EE93E0A0E0B0E084839583A7
:10081000A683B78384E091E09183808385EC90E0A8
:100820009587848784EC90E09787868780EC90E0BA
:10083000918B808B81EC90E0938B828B82EC90E0AB
:10084000958B848B86EC90E0978B868B118E128E25
:10085000138E148E0895CF92DF92EF92FF920F9332
:100860001F93CF93DF936C017A018B01C0E0D0E03E
:10087000CE15DF0589F0D8016D918D01D601ED917E
:10088000FC910190F081E02DC6010995892B11F4AE
:100890007E0102C02196ECCFC701DF91CF911F915D
:1008A0000F91FF90EF90DF90CF90089508950E94F0
:1008B00011050E9456040E948E00CFE9D2E00E94EA
:1008C000E5002097E1F30E949F02F9CF1F920F925B
:1008D0000FB60F9211242F933F938F939F93AF9353
:1008E000BF938091C0019091C101A091C201B091CC
:1008F000C3013091BF0123E0230F2D3720F401966F
:10090000A11DB11D05C026E8230F0296A11DB11D32
:100910002093BF018093C0019093C101A093C201B5
:10092000B093C3018091C4019091C501A091C6010B
:10093000B091C7010196A11DB11D8093C401909390
:10094000C501A093C601B093C701BF91AF919F911C
:100950008F913F912F910F900FBE0F901F90189580
:100960003FB7F8948091C4019091C501A091C60150
:10097000B091C70126B5A89B05C02F3F19F001967D
:10098000A11DB11D3FBFBA2FA92F982F8827820F15
:10099000911DA11DB11DBC01CD0142E0660F771F65
:1009A000881F991F4A95D1F708958F929F92AF9211
:1009B000BF92CF92DF92EF92FF926B017C010E9477
:1009C000B0044B015C01C114D104E104F10401F154
:1009D0000E940A060E94B004DC01CB018819990923
:1009E000AA09BB09883E9340A105B10560F321E047
:1009F000C21AD108E108F10888EE880E83E0981E3B
:100A0000A11CB11CC114D104E104F10419F7DBCF1E
:100A1000FF90EF90DF90CF90BF90AF909F908F901E
:100A20000895789484B5826084BD84B5816084BD66
:100A300085B5826085BD85B5816085BDEEE6F0E057
:100A4000808181608083E1E8F0E0108280818260B3
:100A50008083808181608083E0E8F0E08081816034
:100A60008083E1EBF0E0808184608083E0EBF0E064
:100A7000808181608083EAE7F0E080818460808308
:100A800080818260808380818160808380818068B2
:100A900080831092C1000895833081F028F4813062
:100AA00099F08230A1F008958730A9F08830B9F02C
:100AB0008430D1F4809180008F7D03C080918000CC
:100AC0008F7780938000089584B58F7702C084B5B6
:100AD0008F7D84BD08958091B0008F7703C0809191
:100AE000B0008F7D8093B0000895CF93DF9390E0A6
:100AF000FC01E458FF4F2491FC01E057FF4F849123
:100B0000882361F190E0880F991FFC01E854FF4FA2
:100B1000C591D491FC01E255FF4FA591B4916111AB
:100B200009C09FB7F8948881209582238883EC912F
:100B30002E230BC0623061F49FB7F8943881822F66
:100B4000809583238883EC912E2B2C939FBF06C026
:100B50008FB7F894E8812E2B28838FBFDF91CF9138
:100B600008951F93CF93DF93282F30E0F901E859C0
:100B7000FF4F8491F901E458FF4FD491F901E057F8
:100B8000FF4FC491CC23C9F0162F81110E944C0550
:100B9000EC2FF0E0EE0FFF1FE255FF4FA591B4914F
:100BA0008FB7F894111105C09C91ED2FE095E923C2
:100BB00002C0EC91ED2BEC938FBFDF91CF911F9191
:100BC0000895CF93DF93282F30E0F901E859FF4FC4
:100BD0008491F901E458FF4FD491F901E057FF4F98
:100BE000C491CC2391F081110E944C05EC2FF0E0D0
:100BF000EE0FFF1FEC55FF4FA591B491EC91ED2343
:100C000081E090E021F480E002C080E090E0DF919C
:100C1000CF9108950895A1E21A2EAA1BBB1BFD01D6
:100C20000DC0AA1FBB1FEE1FFF1FA217B307E407CB
:100C3000F50720F0A21BB30BE40BF50B661F771F23
:100C4000881F991F1A9469F7609570958095909503
:100C50009B01AC01BD01CF010895EE0FFF1F059070
:0A0C6000F491E02D0994F894FFCF01
:100C6A0000000000F0022B0471028B027D02CE020A
:00000001FF
